{
  "address": "0x95a8eD5026AC829C4F02c051C2553891c9fD98C7",
  "abi": [
    {
      "inputs": [
        {
          "internalType": "string",
          "name": "_name",
          "type": "string"
        },
        {
          "internalType": "string",
          "name": "_symbol",
          "type": "string"
        },
        {
          "internalType": "address",
          "name": "_lzEndpoint",
          "type": "address"
        },
        {
          "internalType": "address",
          "name": "_delegate",
          "type": "address"
        }
      ],
      "stateMutability": "nonpayable",
      "type": "constructor"
    },
    {
      "inputs": [
        {
          "internalType": "address",
          "name": "target",
          "type": "address"
        }
      ],
      "name": "AddressEmptyCode",
      "type": "error"
    },
    {
      "inputs": [
        {
          "internalType": "address",
          "name": "account",
          "type": "address"
        }
      ],
      "name": "AddressInsufficientBalance",
      "type": "error"
    },
    {
      "inputs": [
        {
          "internalType": "address",
          "name": "sender",
          "type": "address"
        },
        {
          "internalType": "uint256",
          "name": "tokenId",
          "type": "uint256"
        },
        {
          "internalType": "address",
          "name": "owner",
          "type": "address"
        }
      ],
      "name": "ERC721IncorrectOwner",
      "type": "error"
    },
    {
      "inputs": [
        {
          "internalType": "address",
          "name": "operator",
          "type": "address"
        },
        {
          "internalType": "uint256",
          "name": "tokenId",
          "type": "uint256"
        }
      ],
      "name": "ERC721InsufficientApproval",
      "type": "error"
    },
    {
      "inputs": [
        {
          "internalType": "address",
          "name": "approver",
          "type": "address"
        }
      ],
      "name": "ERC721InvalidApprover",
      "type": "error"
    },
    {
      "inputs": [
        {
          "internalType": "address",
          "name": "operator",
          "type": "address"
        }
      ],
      "name": "ERC721InvalidOperator",
      "type": "error"
    },
    {
      "inputs": [
        {
          "internalType": "address",
          "name": "owner",
          "type": "address"
        }
      ],
      "name": "ERC721InvalidOwner",
      "type": "error"
    },
    {
      "inputs": [
        {
          "internalType": "address",
          "name": "receiver",
          "type": "address"
        }
      ],
      "name": "ERC721InvalidReceiver",
      "type": "error"
    },
    {
      "inputs": [
        {
          "internalType": "address",
          "name": "sender",
          "type": "address"
        }
      ],
      "name": "ERC721InvalidSender",
      "type": "error"
    },
    {
      "inputs": [
        {
          "internalType": "uint256",
          "name": "tokenId",
          "type": "uint256"
        }
      ],
      "name": "ERC721NonexistentToken",
      "type": "error"
    },
    {
      "inputs": [],
      "name": "FailedInnerCall",
      "type": "error"
    },
    {
      "inputs": [],
      "name": "InvalidDelegate",
      "type": "error"
    },
    {
      "inputs": [],
      "name": "InvalidEndpointCall",
      "type": "error"
    },
    {
      "inputs": [
        {
          "internalType": "bytes",
          "name": "options",
          "type": "bytes"
        }
      ],
      "name": "InvalidOptions",
      "type": "error"
    },
    {
      "inputs": [],
      "name": "InvalidReceiver",
      "type": "error"
    },
    {
      "inputs": [],
      "name": "LzTokenUnavailable",
      "type": "error"
    },
    {
      "inputs": [
        {
          "internalType": "uint32",
          "name": "eid",
          "type": "uint32"
        }
      ],
      "name": "NoPeer",
      "type": "error"
    },
    {
      "inputs": [
        {
          "internalType": "uint256",
          "name": "msgValue",
          "type": "uint256"
        }
      ],
      "name": "NotEnoughNative",
      "type": "error"
    },
    {
      "inputs": [
        {
          "internalType": "address",
          "name": "addr",
          "type": "address"
        }
      ],
      "name": "OnlyEndpoint",
      "type": "error"
    },
    {
      "inputs": [
        {
          "internalType": "address",
          "name": "caller",
          "type": "address"
        },
        {
          "internalType": "address",
          "name": "owner",
          "type": "address"
        }
      ],
      "name": "OnlyNFTOwner",
      "type": "error"
    },
    {
      "inputs": [
        {
          "internalType": "uint32",
          "name": "eid",
          "type": "uint32"
        },
        {
          "internalType": "bytes32",
          "name": "sender",
          "type": "bytes32"
        }
      ],
      "name": "OnlyPeer",
      "type": "error"
    },
    {
      "inputs": [],
      "name": "OnlySelf",
      "type": "error"
    },
    {
      "inputs": [
        {
          "internalType": "address",
          "name": "owner",
          "type": "address"
        }
      ],
      "name": "OwnableInvalidOwner",
      "type": "error"
    },
    {
      "inputs": [
        {
          "internalType": "address",
          "name": "account",
          "type": "address"
        }
      ],
      "name": "OwnableUnauthorizedAccount",
      "type": "error"
    },
    {
      "inputs": [
        {
          "internalType": "address",
          "name": "token",
          "type": "address"
        }
      ],
      "name": "SafeERC20FailedOperation",
      "type": "error"
    },
    {
      "inputs": [
        {
          "internalType": "bytes",
          "name": "result",
          "type": "bytes"
        }
      ],
      "name": "SimulationResult",
      "type": "error"
    },
    {
      "anonymous": false,
      "inputs": [
        {
          "indexed": true,
          "internalType": "address",
          "name": "owner",
          "type": "address"
        },
        {
          "indexed": true,
          "internalType": "address",
          "name": "approved",
          "type": "address"
        },
        {
          "indexed": true,
          "internalType": "uint256",
          "name": "tokenId",
          "type": "uint256"
        }
      ],
      "name": "Approval",
      "type": "event"
    },
    {
      "anonymous": false,
      "inputs": [
        {
          "indexed": true,
          "internalType": "address",
          "name": "owner",
          "type": "address"
        },
        {
          "indexed": true,
          "internalType": "address",
          "name": "operator",
          "type": "address"
        },
        {
          "indexed": false,
          "internalType": "bool",
          "name": "approved",
          "type": "bool"
        }
      ],
      "name": "ApprovalForAll",
      "type": "event"
    },
    {
      "anonymous": false,
      "inputs": [
        {
          "indexed": false,
          "internalType": "string",
          "name": "baseURI",
          "type": "string"
        }
      ],
      "name": "BaseURISet",
      "type": "event"
    },
    {
      "anonymous": false,
      "inputs": [
        {
          "components": [
            {
              "internalType": "uint32",
              "name": "eid",
              "type": "uint32"
            },
            {
              "internalType": "uint16",
              "name": "msgType",
              "type": "uint16"
            },
            {
              "internalType": "bytes",
              "name": "options",
              "type": "bytes"
            }
          ],
          "indexed": false,
          "internalType": "struct EnforcedOptionParam[]",
          "name": "_enforcedOptions",
          "type": "tuple[]"
        }
      ],
      "name": "EnforcedOptionSet",
      "type": "event"
    },
    {
      "anonymous": false,
      "inputs": [
        {
          "indexed": false,
          "internalType": "address",
          "name": "inspector",
          "type": "address"
        }
      ],
      "name": "MsgInspectorSet",
      "type": "event"
    },
    {
      "anonymous": false,
      "inputs": [
        {
          "indexed": true,
          "internalType": "bytes32",
          "name": "guid",
          "type": "bytes32"
        },
        {
          "indexed": false,
          "internalType": "uint32",
          "name": "srcEid",
          "type": "uint32"
        },
        {
          "indexed": true,
          "internalType": "address",
          "name": "toAddress",
          "type": "address"
        },
        {
          "indexed": false,
          "internalType": "uint256",
          "name": "tokenId",
          "type": "uint256"
        }
      ],
      "name": "ONFTReceived",
      "type": "event"
    },
    {
      "anonymous": false,
      "inputs": [
        {
          "indexed": true,
          "internalType": "bytes32",
          "name": "guid",
          "type": "bytes32"
        },
        {
          "indexed": false,
          "internalType": "uint32",
          "name": "dstEid",
          "type": "uint32"
        },
        {
          "indexed": true,
          "internalType": "address",
          "name": "fromAddress",
          "type": "address"
        },
        {
          "indexed": false,
          "internalType": "uint256",
          "name": "tokenId",
          "type": "uint256"
        }
      ],
      "name": "ONFTSent",
      "type": "event"
    },
    {
      "anonymous": false,
      "inputs": [
        {
          "indexed": true,
          "internalType": "address",
          "name": "previousOwner",
          "type": "address"
        },
        {
          "indexed": true,
          "internalType": "address",
          "name": "newOwner",
          "type": "address"
        }
      ],
      "name": "OwnershipTransferred",
      "type": "event"
    },
    {
      "anonymous": false,
      "inputs": [
        {
          "indexed": false,
          "internalType": "uint32",
          "name": "eid",
          "type": "uint32"
        },
        {
          "indexed": false,
          "internalType": "bytes32",
          "name": "peer",
          "type": "bytes32"
        }
      ],
      "name": "PeerSet",
      "type": "event"
    },
    {
      "anonymous": false,
      "inputs": [
        {
          "indexed": false,
          "internalType": "address",
          "name": "preCrimeAddress",
          "type": "address"
        }
      ],
      "name": "PreCrimeSet",
      "type": "event"
    },
    {
      "anonymous": false,
      "inputs": [
        {
          "indexed": true,
          "internalType": "address",
          "name": "from",
          "type": "address"
        },
        {
          "indexed": true,
          "internalType": "address",
          "name": "to",
          "type": "address"
        },
        {
          "indexed": true,
          "internalType": "uint256",
          "name": "tokenId",
          "type": "uint256"
        }
      ],
      "name": "Transfer",
      "type": "event"
    },
    {
      "inputs": [],
      "name": "SEND",
      "outputs": [
        {
          "internalType": "uint16",
          "name": "",
          "type": "uint16"
        }
      ],
      "stateMutability": "view",
      "type": "function"
    },
    {
      "inputs": [],
      "name": "SEND_AND_COMPOSE",
      "outputs": [
        {
          "internalType": "uint16",
          "name": "",
          "type": "uint16"
        }
      ],
      "stateMutability": "view",
      "type": "function"
    },
    {
      "inputs": [
        {
          "components": [
            {
              "internalType": "uint32",
              "name": "srcEid",
              "type": "uint32"
            },
            {
              "internalType": "bytes32",
              "name": "sender",
              "type": "bytes32"
            },
            {
              "internalType": "uint64",
              "name": "nonce",
              "type": "uint64"
            }
          ],
          "internalType": "struct Origin",
          "name": "origin",
          "type": "tuple"
        }
      ],
      "name": "allowInitializePath",
      "outputs": [
        {
          "internalType": "bool",
          "name": "",
          "type": "bool"
        }
      ],
      "stateMutability": "view",
      "type": "function"
    },
    {
      "inputs": [],
      "name": "approvalRequired",
      "outputs": [
        {
          "internalType": "bool",
          "name": "",
          "type": "bool"
        }
      ],
      "stateMutability": "pure",
      "type": "function"
    },
    {
      "inputs": [
        {
          "internalType": "address",
          "name": "to",
          "type": "address"
        },
        {
          "internalType": "uint256",
          "name": "tokenId",
          "type": "uint256"
        }
      ],
      "name": "approve",
      "outputs": [],
      "stateMutability": "nonpayable",
      "type": "function"
    },
    {
      "inputs": [
        {
          "internalType": "address",
          "name": "owner",
          "type": "address"
        }
      ],
      "name": "balanceOf",
      "outputs": [
        {
          "internalType": "uint256",
          "name": "",
          "type": "uint256"
        }
      ],
      "stateMutability": "view",
      "type": "function"
    },
    {
      "inputs": [
        {
          "internalType": "uint32",
          "name": "_eid",
          "type": "uint32"
        },
        {
          "internalType": "uint16",
          "name": "_msgType",
          "type": "uint16"
        },
        {
          "internalType": "bytes",
          "name": "_extraOptions",
          "type": "bytes"
        }
      ],
      "name": "combineOptions",
      "outputs": [
        {
          "internalType": "bytes",
          "name": "",
          "type": "bytes"
        }
      ],
      "stateMutability": "view",
      "type": "function"
    },
    {
      "inputs": [],
      "name": "endpoint",
      "outputs": [
        {
          "internalType": "contract ILayerZeroEndpointV2",
          "name": "",
          "type": "address"
        }
      ],
      "stateMutability": "view",
      "type": "function"
    },
    {
      "inputs": [
        {
          "internalType": "uint32",
          "name": "eid",
          "type": "uint32"
        },
        {
          "internalType": "uint16",
          "name": "msgType",
          "type": "uint16"
        }
      ],
      "name": "enforcedOptions",
      "outputs": [
        {
          "internalType": "bytes",
          "name": "enforcedOption",
          "type": "bytes"
        }
      ],
      "stateMutability": "view",
      "type": "function"
    },
    {
      "inputs": [
        {
          "internalType": "uint256",
          "name": "tokenId",
          "type": "uint256"
        }
      ],
      "name": "getApproved",
      "outputs": [
        {
          "internalType": "address",
          "name": "",
          "type": "address"
        }
      ],
      "stateMutability": "view",
      "type": "function"
    },
    {
      "inputs": [
        {
          "internalType": "address",
          "name": "owner",
          "type": "address"
        },
        {
          "internalType": "address",
          "name": "operator",
          "type": "address"
        }
      ],
      "name": "isApprovedForAll",
      "outputs": [
        {
          "internalType": "bool",
          "name": "",
          "type": "bool"
        }
      ],
      "stateMutability": "view",
      "type": "function"
    },
    {
      "inputs": [
        {
          "components": [
            {
              "internalType": "uint32",
              "name": "srcEid",
              "type": "uint32"
            },
            {
              "internalType": "bytes32",
              "name": "sender",
              "type": "bytes32"
            },
            {
              "internalType": "uint64",
              "name": "nonce",
              "type": "uint64"
            }
          ],
          "internalType": "struct Origin",
          "name": "",
          "type": "tuple"
        },
        {
          "internalType": "bytes",
          "name": "",
          "type": "bytes"
        },
        {
          "internalType": "address",
          "name": "_sender",
          "type": "address"
        }
      ],
      "name": "isComposeMsgSender",
      "outputs": [
        {
          "internalType": "bool",
          "name": "",
          "type": "bool"
        }
      ],
      "stateMutability": "view",
      "type": "function"
    },
    {
      "inputs": [
        {
          "internalType": "uint32",
          "name": "_eid",
          "type": "uint32"
        },
        {
          "internalType": "bytes32",
          "name": "_peer",
          "type": "bytes32"
        }
      ],
      "name": "isPeer",
      "outputs": [
        {
          "internalType": "bool",
          "name": "",
          "type": "bool"
        }
      ],
      "stateMutability": "view",
      "type": "function"
    },
    {
      "inputs": [
        {
          "components": [
            {
              "internalType": "uint32",
              "name": "srcEid",
              "type": "uint32"
            },
            {
              "internalType": "bytes32",
              "name": "sender",
              "type": "bytes32"
            },
            {
              "internalType": "uint64",
              "name": "nonce",
              "type": "uint64"
            }
          ],
          "internalType": "struct Origin",
          "name": "_origin",
          "type": "tuple"
        },
        {
          "internalType": "bytes32",
          "name": "_guid",
          "type": "bytes32"
        },
        {
          "internalType": "bytes",
          "name": "_message",
          "type": "bytes"
        },
        {
          "internalType": "address",
          "name": "_executor",
          "type": "address"
        },
        {
          "internalType": "bytes",
          "name": "_extraData",
          "type": "bytes"
        }
      ],
      "name": "lzReceive",
      "outputs": [],
      "stateMutability": "payable",
      "type": "function"
    },
    {
      "inputs": [
        {
          "components": [
            {
              "components": [
                {
                  "internalType": "uint32",
                  "name": "srcEid",
                  "type": "uint32"
                },
                {
                  "internalType": "bytes32",
                  "name": "sender",
                  "type": "bytes32"
                },
                {
                  "internalType": "uint64",
                  "name": "nonce",
                  "type": "uint64"
                }
              ],
              "internalType": "struct Origin",
              "name": "origin",
              "type": "tuple"
            },
            {
              "internalType": "uint32",
              "name": "dstEid",
              "type": "uint32"
            },
            {
              "internalType": "address",
              "name": "receiver",
              "type": "address"
            },
            {
              "internalType": "bytes32",
              "name": "guid",
              "type": "bytes32"
            },
            {
              "internalType": "uint256",
              "name": "value",
              "type": "uint256"
            },
            {
              "internalType": "address",
              "name": "executor",
              "type": "address"
            },
            {
              "internalType": "bytes",
              "name": "message",
              "type": "bytes"
            },
            {
              "internalType": "bytes",
              "name": "extraData",
              "type": "bytes"
            }
          ],
          "internalType": "struct InboundPacket[]",
          "name": "_packets",
          "type": "tuple[]"
        }
      ],
      "name": "lzReceiveAndRevert",
      "outputs": [],
      "stateMutability": "payable",
      "type": "function"
    },
    {
      "inputs": [
        {
          "components": [
            {
              "internalType": "uint32",
              "name": "srcEid",
              "type": "uint32"
            },
            {
              "internalType": "bytes32",
              "name": "sender",
              "type": "bytes32"
            },
            {
              "internalType": "uint64",
              "name": "nonce",
              "type": "uint64"
            }
          ],
          "internalType": "struct Origin",
          "name": "_origin",
          "type": "tuple"
        },
        {
          "internalType": "bytes32",
          "name": "_guid",
          "type": "bytes32"
        },
        {
          "internalType": "bytes",
          "name": "_message",
          "type": "bytes"
        },
        {
          "internalType": "address",
          "name": "_executor",
          "type": "address"
        },
        {
          "internalType": "bytes",
          "name": "_extraData",
          "type": "bytes"
        }
      ],
      "name": "lzReceiveSimulate",
      "outputs": [],
      "stateMutability": "payable",
      "type": "function"
    },
    {
      "inputs": [
        {
          "internalType": "address",
          "name": "_to",
          "type": "address"
        },
        {
          "internalType": "uint256",
          "name": "_amount",
          "type": "uint256"
        }
      ],
      "name": "mint",
      "outputs": [],
      "stateMutability": "nonpayable",
      "type": "function"
    },
    {
      "inputs": [],
      "name": "msgInspector",
      "outputs": [
        {
          "internalType": "address",
          "name": "",
          "type": "address"
        }
      ],
      "stateMutability": "view",
      "type": "function"
    },
    {
      "inputs": [],
      "name": "name",
      "outputs": [
        {
          "internalType": "string",
          "name": "",
          "type": "string"
        }
      ],
      "stateMutability": "view",
      "type": "function"
    },
    {
      "inputs": [
        {
          "internalType": "uint32",
          "name": "",
          "type": "uint32"
        },
        {
          "internalType": "bytes32",
          "name": "",
          "type": "bytes32"
        }
      ],
      "name": "nextNonce",
      "outputs": [
        {
          "internalType": "uint64",
          "name": "nonce",
          "type": "uint64"
        }
      ],
      "stateMutability": "view",
      "type": "function"
    },
    {
      "inputs": [],
      "name": "oApp",
      "outputs": [
        {
          "internalType": "address",
          "name": "",
          "type": "address"
        }
      ],
      "stateMutability": "view",
      "type": "function"
    },
    {
      "inputs": [],
      "name": "oAppVersion",
      "outputs": [
        {
          "internalType": "uint64",
          "name": "senderVersion",
          "type": "uint64"
        },
        {
          "internalType": "uint64",
          "name": "receiverVersion",
          "type": "uint64"
        }
      ],
      "stateMutability": "pure",
      "type": "function"
    },
    {
      "inputs": [],
      "name": "onftVersion",
      "outputs": [
        {
          "internalType": "bytes4",
          "name": "interfaceId",
          "type": "bytes4"
        },
        {
          "internalType": "uint64",
          "name": "version",
          "type": "uint64"
        }
      ],
      "stateMutability": "pure",
      "type": "function"
    },
    {
      "inputs": [],
      "name": "owner",
      "outputs": [
        {
          "internalType": "address",
          "name": "",
          "type": "address"
        }
      ],
      "stateMutability": "view",
      "type": "function"
    },
    {
      "inputs": [
        {
          "internalType": "uint256",
          "name": "tokenId",
          "type": "uint256"
        }
      ],
      "name": "ownerOf",
      "outputs": [
        {
          "internalType": "address",
          "name": "",
          "type": "address"
        }
      ],
      "stateMutability": "view",
      "type": "function"
    },
    {
      "inputs": [
        {
          "internalType": "uint32",
          "name": "eid",
          "type": "uint32"
        }
      ],
      "name": "peers",
      "outputs": [
        {
          "internalType": "bytes32",
          "name": "peer",
          "type": "bytes32"
        }
      ],
      "stateMutability": "view",
      "type": "function"
    },
    {
      "inputs": [],
      "name": "preCrime",
      "outputs": [
        {
          "internalType": "address",
          "name": "",
          "type": "address"
        }
      ],
      "stateMutability": "view",
      "type": "function"
    },
    {
      "inputs": [
        {
          "components": [
            {
              "internalType": "uint32",
              "name": "dstEid",
              "type": "uint32"
            },
            {
              "internalType": "bytes32",
              "name": "to",
              "type": "bytes32"
            },
            {
              "internalType": "uint256",
              "name": "tokenId",
              "type": "uint256"
            },
            {
              "internalType": "bytes",
              "name": "extraOptions",
              "type": "bytes"
            },
            {
              "internalType": "bytes",
              "name": "composeMsg",
              "type": "bytes"
            },
            {
              "internalType": "bytes",
              "name": "onftCmd",
              "type": "bytes"
            }
          ],
          "internalType": "struct SendParam",
          "name": "_sendParam",
          "type": "tuple"
        },
        {
          "internalType": "bool",
          "name": "_payInLzToken",
          "type": "bool"
        }
      ],
      "name": "quoteSend",
      "outputs": [
        {
          "components": [
            {
              "internalType": "uint256",
              "name": "nativeFee",
              "type": "uint256"
            },
            {
              "internalType": "uint256",
              "name": "lzTokenFee",
              "type": "uint256"
            }
          ],
          "internalType": "struct MessagingFee",
          "name": "msgFee",
          "type": "tuple"
        }
      ],
      "stateMutability": "view",
      "type": "function"
    },
    {
      "inputs": [],
      "name": "renounceOwnership",
      "outputs": [],
      "stateMutability": "nonpayable",
      "type": "function"
    },
    {
      "inputs": [
        {
          "internalType": "address",
          "name": "from",
          "type": "address"
        },
        {
          "internalType": "address",
          "name": "to",
          "type": "address"
        },
        {
          "internalType": "uint256",
          "name": "tokenId",
          "type": "uint256"
        }
      ],
      "name": "safeTransferFrom",
      "outputs": [],
      "stateMutability": "nonpayable",
      "type": "function"
    },
    {
      "inputs": [
        {
          "internalType": "address",
          "name": "from",
          "type": "address"
        },
        {
          "internalType": "address",
          "name": "to",
          "type": "address"
        },
        {
          "internalType": "uint256",
          "name": "tokenId",
          "type": "uint256"
        },
        {
          "internalType": "bytes",
          "name": "data",
          "type": "bytes"
        }
      ],
      "name": "safeTransferFrom",
      "outputs": [],
      "stateMutability": "nonpayable",
      "type": "function"
    },
    {
      "inputs": [
        {
          "components": [
            {
              "internalType": "uint32",
              "name": "dstEid",
              "type": "uint32"
            },
            {
              "internalType": "bytes32",
              "name": "to",
              "type": "bytes32"
            },
            {
              "internalType": "uint256",
              "name": "tokenId",
              "type": "uint256"
            },
            {
              "internalType": "bytes",
              "name": "extraOptions",
              "type": "bytes"
            },
            {
              "internalType": "bytes",
              "name": "composeMsg",
              "type": "bytes"
            },
            {
              "internalType": "bytes",
              "name": "onftCmd",
              "type": "bytes"
            }
          ],
          "internalType": "struct SendParam",
          "name": "_sendParam",
          "type": "tuple"
        },
        {
          "components": [
            {
              "internalType": "uint256",
              "name": "nativeFee",
              "type": "uint256"
            },
            {
              "internalType": "uint256",
              "name": "lzTokenFee",
              "type": "uint256"
            }
          ],
          "internalType": "struct MessagingFee",
          "name": "_fee",
          "type": "tuple"
        },
        {
          "internalType": "address",
          "name": "_refundAddress",
          "type": "address"
        }
      ],
      "name": "send",
      "outputs": [
        {
          "components": [
            {
              "internalType": "bytes32",
              "name": "guid",
              "type": "bytes32"
            },
            {
              "internalType": "uint64",
              "name": "nonce",
              "type": "uint64"
            },
            {
              "components": [
                {
                  "internalType": "uint256",
                  "name": "nativeFee",
                  "type": "uint256"
                },
                {
                  "internalType": "uint256",
                  "name": "lzTokenFee",
                  "type": "uint256"
                }
              ],
              "internalType": "struct MessagingFee",
              "name": "fee",
              "type": "tuple"
            }
          ],
          "internalType": "struct MessagingReceipt",
          "name": "msgReceipt",
          "type": "tuple"
        }
      ],
      "stateMutability": "payable",
      "type": "function"
    },
    {
      "inputs": [
        {
          "internalType": "address",
          "name": "operator",
          "type": "address"
        },
        {
          "internalType": "bool",
          "name": "approved",
          "type": "bool"
        }
      ],
      "name": "setApprovalForAll",
      "outputs": [],
      "stateMutability": "nonpayable",
      "type": "function"
    },
    {
      "inputs": [
        {
          "internalType": "string",
          "name": "_baseTokenURI",
          "type": "string"
        }
      ],
      "name": "setBaseURI",
      "outputs": [],
      "stateMutability": "nonpayable",
      "type": "function"
    },
    {
      "inputs": [
        {
          "internalType": "address",
          "name": "_delegate",
          "type": "address"
        }
      ],
      "name": "setDelegate",
      "outputs": [],
      "stateMutability": "nonpayable",
      "type": "function"
    },
    {
      "inputs": [
        {
          "components": [
            {
              "internalType": "uint32",
              "name": "eid",
              "type": "uint32"
            },
            {
              "internalType": "uint16",
              "name": "msgType",
              "type": "uint16"
            },
            {
              "internalType": "bytes",
              "name": "options",
              "type": "bytes"
            }
          ],
          "internalType": "struct EnforcedOptionParam[]",
          "name": "_enforcedOptions",
          "type": "tuple[]"
        }
      ],
      "name": "setEnforcedOptions",
      "outputs": [],
      "stateMutability": "nonpayable",
      "type": "function"
    },
    {
      "inputs": [
        {
          "internalType": "address",
          "name": "_msgInspector",
          "type": "address"
        }
      ],
      "name": "setMsgInspector",
      "outputs": [],
      "stateMutability": "nonpayable",
      "type": "function"
    },
    {
      "inputs": [
        {
          "internalType": "uint32",
          "name": "_eid",
          "type": "uint32"
        },
        {
          "internalType": "bytes32",
          "name": "_peer",
          "type": "bytes32"
        }
      ],
      "name": "setPeer",
      "outputs": [],
      "stateMutability": "nonpayable",
      "type": "function"
    },
    {
      "inputs": [
        {
          "internalType": "address",
          "name": "_preCrime",
          "type": "address"
        }
      ],
      "name": "setPreCrime",
      "outputs": [],
      "stateMutability": "nonpayable",
      "type": "function"
    },
    {
      "inputs": [
        {
          "internalType": "bytes4",
          "name": "interfaceId",
          "type": "bytes4"
        }
      ],
      "name": "supportsInterface",
      "outputs": [
        {
          "internalType": "bool",
          "name": "",
          "type": "bool"
        }
      ],
      "stateMutability": "view",
      "type": "function"
    },
    {
      "inputs": [],
      "name": "symbol",
      "outputs": [
        {
          "internalType": "string",
          "name": "",
          "type": "string"
        }
      ],
      "stateMutability": "view",
      "type": "function"
    },
    {
      "inputs": [],
      "name": "token",
      "outputs": [
        {
          "internalType": "address",
          "name": "",
          "type": "address"
        }
      ],
      "stateMutability": "view",
      "type": "function"
    },
    {
      "inputs": [
        {
          "internalType": "uint256",
          "name": "tokenId",
          "type": "uint256"
        }
      ],
      "name": "tokenURI",
      "outputs": [
        {
          "internalType": "string",
          "name": "",
          "type": "string"
        }
      ],
      "stateMutability": "view",
      "type": "function"
    },
    {
      "inputs": [
        {
          "internalType": "address",
          "name": "from",
          "type": "address"
        },
        {
          "internalType": "address",
          "name": "to",
          "type": "address"
        },
        {
          "internalType": "uint256",
          "name": "tokenId",
          "type": "uint256"
        }
      ],
      "name": "transferFrom",
      "outputs": [],
      "stateMutability": "nonpayable",
      "type": "function"
    },
    {
      "inputs": [
        {
          "internalType": "address",
          "name": "newOwner",
          "type": "address"
        }
      ],
      "name": "transferOwnership",
      "outputs": [],
      "stateMutability": "nonpayable",
      "type": "function"
    }
  ],
  "transactionHash": "0x278ffb9746042f8a1deb982a850e48dee0c248638b6ebf84f0b67fd12e2218ae",
  "args": [
    "MyONFT721",
    "ONFT",
    "0x6EDCE65403992e310A62460808c4b910D972f10f",
    "0xAe451f1873B4C4D7263631Bf0ea141D54Ba39eEa"
  ],
  "numDeployments": 1,
  "solcInputHash": "a05ebbe2e9da9a48b5eb5725de213d60",
  "bytecode": "0x60a06040523480156200001157600080fd5b5060405162003d3138038062003d3183398101604081905262000034916200027f565b83838383838383838383838381818181806001600160a01b0381166200007457604051631e4fbdf760e01b81526000600482015260240160405180910390fd5b6200007f816200014a565b506001600160a01b038083166080528116620000ae57604051632d618d8160e21b815260040160405180910390fd5b60805160405163ca5eb5e160e01b81526001600160a01b0383811660048301529091169063ca5eb5e190602401600060405180830381600087803b158015620000f657600080fd5b505af11580156200010b573d6000803e3d6000fd5b5050505050505050505081600590816200012691906200039f565b5060066200013582826200039f565b5050505050505050505050505050506200046b565b600080546001600160a01b038381166001600160a01b0319831681178455604051919092169283917f8be0079c531659141344cd1fd0a4f28419497f9722a3daafe3b4186f6b6457e09190a35050565b634e487b7160e01b600052604160045260246000fd5b600082601f830112620001c257600080fd5b81516001600160401b0380821115620001df57620001df6200019a565b604051601f8301601f19908116603f011681019082821181831017156200020a576200020a6200019a565b81604052838152602092508660208588010111156200022857600080fd5b600091505b838210156200024c57858201830151818301840152908201906200022d565b6000602085830101528094505050505092915050565b80516001600160a01b03811681146200027a57600080fd5b919050565b600080600080608085870312156200029657600080fd5b84516001600160401b0380821115620002ae57600080fd5b620002bc88838901620001b0565b95506020870151915080821115620002d357600080fd5b50620002e287828801620001b0565b935050620002f36040860162000262565b9150620003036060860162000262565b905092959194509250565b600181811c908216806200032357607f821691505b6020821081036200034457634e487b7160e01b600052602260045260246000fd5b50919050565b601f8211156200039a576000816000526020600020601f850160051c81016020861015620003755750805b601f850160051c820191505b81811015620003965782815560010162000381565b5050505b505050565b81516001600160401b03811115620003bb57620003bb6200019a565b620003d381620003cc84546200030e565b846200034a565b602080601f8311600181146200040b5760008415620003f25750858301515b600019600386901b1c1916600185901b17855562000396565b600085815260208120601f198616915b828110156200043c578886015182559484019460019091019084016200041b565b50858210156200045b5787850151600019600388901b60f8161c191681555b5050505050600190811b01905550565b608051613879620004b8600039600081816104e101528181610963015281816112990152818161152e0152818161187101528181611ea8015281816122ef01526123a801526138796000f3fe6080604052600436106102725760003560e01c80637d25a05e1161014f578063bb0b6a53116100c1578063d045a0dc1161007a578063d045a0dc146107b2578063d4243885146107c5578063e985e9c5146107e5578063f2fde38b14610805578063fc0c546a14610445578063ff7bd03d1461082557600080fd5b8063bb0b6a53146106e5578063bc70b35414610712578063bd815db014610732578063c6414e7b14610745578063c87b56dd14610772578063ca5eb5e11461079257600080fd5b8063a22cb46511610113578063a22cb46514610628578063a72f5dd814610648578063b21a33e414610670578063b731ea0a14610685578063b88d4fde146106a5578063b98bd070146106c557600080fd5b80637d25a05e1461058657806382413eac146105c15780638da5cb5b146105e157806395d89b41146105ff5780639f68b9641461061457600080fd5b806340c10f19116101e85780635a0dfe4d116101ac5780635a0dfe4d146104985780635e280f11146104cf5780636352211e146105035780636fc1b31e1461052357806370a0823114610543578063715018a61461057157600080fd5b806340c10f191461040557806342842e0e1461042557806352ae2879146104455780635535d4611461045857806355f804b31461047857600080fd5b806313137d651161023a57806313137d651461034857806317442b701461035b5780631f5e13341461037d57806321eb730b146103a557806323b872dd146103c55780633400288b146103e557600080fd5b806301ffc9a71461027757806306fdde03146102ac578063081812fc146102ce578063095ea7b314610306578063111ecdad14610328575b600080fd5b34801561028357600080fd5b5061029761029236600461278d565b610845565b60405190151581526020015b60405180910390f35b3480156102b857600080fd5b506102c1610897565b6040516102a391906127fa565b3480156102da57600080fd5b506102ee6102e936600461280d565b610929565b6040516001600160a01b0390911681526020016102a3565b34801561031257600080fd5b5061032661032136600461283b565b610952565b005b34801561033457600080fd5b506004546102ee906001600160a01b031681565b6103266103563660046128c7565b610961565b34801561036757600080fd5b50604080516001815260026020820152016102a3565b34801561038957600080fd5b50610392600181565b60405161ffff90911681526020016102a3565b6103b86103b3366004612978565b610a21565b6040516102a391906129e5565b3480156103d157600080fd5b506103266103e0366004612a27565b610b8b565b3480156103f157600080fd5b50610326610400366004612a81565b610c16565b34801561041157600080fd5b5061032661042036600461283b565b610c28565b34801561043157600080fd5b50610326610440366004612a27565b610c57565b34801561045157600080fd5b50306102ee565b34801561046457600080fd5b506102c1610473366004612aaf565b610c77565b34801561048457600080fd5b50610326610493366004612ae2565b610d1c565b3480156104a457600080fd5b506102976104b3366004612a81565b63ffffffff919091166000908152600160205260409020541490565b3480156104db57600080fd5b506102ee7f000000000000000000000000000000000000000000000000000000000000000081565b34801561050f57600080fd5b506102ee61051e36600461280d565b610d6e565b34801561052f57600080fd5b5061032661053e366004612b23565b610d79565b34801561054f57600080fd5b5061056361055e366004612b23565b610dd6565b6040519081526020016102a3565b34801561057d57600080fd5b50610326610e1e565b34801561059257600080fd5b506105a96105a1366004612a81565b600092915050565b6040516001600160401b0390911681526020016102a3565b3480156105cd57600080fd5b506102976105dc366004612b40565b610e32565b3480156105ed57600080fd5b506000546001600160a01b03166102ee565b34801561060b57600080fd5b506102c1610e47565b34801561062057600080fd5b506000610297565b34801561063457600080fd5b50610326610643366004612bb4565b610e56565b34801561065457600080fd5b50604080516311f0c6d360e11b815260016020820152016102a3565b34801561067c57600080fd5b50610392600281565b34801561069157600080fd5b506002546102ee906001600160a01b031681565b3480156106b157600080fd5b506103266106c0366004612cfa565b610e61565b3480156106d157600080fd5b506103266106e0366004612da9565b610e78565b3480156106f157600080fd5b50610563610700366004612dde565b60016020526000908152604090205481565b34801561071e57600080fd5b506102c161072d366004612df9565b610e92565b610326610740366004612da9565b61103a565b34801561075157600080fd5b50610765610760366004612e59565b6111c4565b6040516102a39190612e9f565b34801561077e57600080fd5b506102c161078d36600461280d565b61120a565b34801561079e57600080fd5b506103266107ad366004612b23565b611272565b6103266107c03660046128c7565b6112f8565b3480156107d157600080fd5b506103266107e0366004612b23565b611327565b3480156107f157600080fd5b50610297610800366004612eb6565b61137d565b34801561081157600080fd5b50610326610820366004612b23565b6113ab565b34801561083157600080fd5b50610297610840366004612ee4565b6113e9565b60006001600160e01b031982166380ac58cd60e01b148061087657506001600160e01b03198216635b5e139f60e01b145b8061089157506301ffc9a760e01b6001600160e01b03198316145b92915050565b6060600580546108a690612f00565b80601f01602080910402602001604051908101604052809291908181526020018280546108d290612f00565b801561091f5780601f106108f45761010080835404028352916020019161091f565b820191906000526020600020905b81548152906001019060200180831161090257829003601f168201915b5050505050905090565b60006109348261141f565b506000828152600960205260409020546001600160a01b0316610891565b61095d828233611458565b5050565b7f00000000000000000000000000000000000000000000000000000000000000006001600160a01b031633146109b1576040516391ac5e4f60e01b81523360048201526024015b60405180910390fd5b602087018035906109cb906109c6908a612dde565b611465565b14610a09576109dd6020880188612dde565b60405163309afaf360e21b815263ffffffff9091166004820152602088013560248201526044016109a8565b610a18878787878787876114a1565b50505050505050565b610a29612730565b610a506040518060400160405280600681526020016517d919589a5d60d21b815250611600565b610a6b336040860135610a666020880188612dde565b611643565b610a95604051806040016040528060098152602001681bdac817d919589a5d60ba1b815250611600565b600080610aa1866116a3565b91509150610adc604051806040016040528060168152602001756f6b205f6275696c644d7367416e644f7074696f6e7360501b815250611600565b610b03610aec6020880188612dde565b8383610afd368a90038a018a612f34565b886117e2565b9250610b306040518060400160405280600a8152602001691bdac817db1e94d95b9960b21b815250611600565b825133907f986156872b2ee0022b9585231dbbfde457f87f8a16b6c45e1a81c54c4ad8351f610b6260208a018a612dde565b6040805163ffffffff9092168252808b013560208301520160405180910390a350509392505050565b6001600160a01b038216610bb557604051633250574960e11b8152600060048201526024016109a8565b6000610bc2838333611975565b9050836001600160a01b0316816001600160a01b031614610c10576040516364283d7b60e01b81526001600160a01b03808616600483015260248201849052821660448201526064016109a8565b50505050565b610c1e611a6e565b61095d8282611a9b565b610c4d604051806040016040528060048152602001631b5a5b9d60e21b815250611600565b61095d8282611ae9565b610c7283838360405180602001604052806000815250610e61565b505050565b600360209081526000928352604080842090915290825290208054610c9b90612f00565b80601f0160208091040260200160405190810160405280929190818152602001828054610cc790612f00565b8015610d145780601f10610ce957610100808354040283529160200191610d14565b820191906000526020600020905b815481529060010190602001808311610cf757829003601f168201915b505050505081565b610d24611a6e565b600b610d31828483612fb6565b507ff9c7803e94e0d3c02900d8a90893a6d5e90dd04d32a4cfe825520f82bf9f32f6600b604051610d629190613075565b60405180910390a15050565b60006108918261141f565b610d81611a6e565b600480546001600160a01b0319166001600160a01b0383169081179091556040519081527ff0be4f1e87349231d80c36b33f9e8639658eeaf474014dee15a3e6a4d4414197906020015b60405180910390a150565b60006001600160a01b038216610e02576040516322718ad960e21b8152600060048201526024016109a8565b506001600160a01b031660009081526008602052604090205490565b610e26611a6e565b610e306000611b4e565b565b6001600160a01b03811630145b949350505050565b6060600680546108a690612f00565b61095d338383611b9e565b610e6c848484610b8b565b610c1084848484611c3d565b610e80611a6e565b61095d610e8d8284613105565b611d5f565b63ffffffff8416600090815260036020908152604080832061ffff87168452909152812080546060929190610ec690612f00565b80601f0160208091040260200160405190810160405280929190818152602001828054610ef290612f00565b8015610f3f5780601f10610f1457610100808354040283529160200191610f3f565b820191906000526020600020905b815481529060010190602001808311610f2257829003601f168201915b505050505090508051600003610f8f5783838080601f016020809104026020016040519081016040528093929190818152602001838380828437600092019190915250929450610e3f9350505050565b6000839003610f9f579050610e3f565b6002831061101d57610fe684848080601f016020809104026020016040519081016040528093929190818152602001838380828437600092019190915250611e6692505050565b80610ff484600281886131da565b60405160200161100693929190613204565b604051602081830303815290604052915050610e3f565b8383604051639a6d49cd60e01b81526004016109a8929190613255565b60005b81811015611143573683838381811061105857611058613269565b905060200281019061106a919061327f565b905061109d61107c6020830183612dde565b602083013563ffffffff919091166000908152600160205260409020541490565b6110a7575061113b565b3063d045a0dc60c08301358360a08101356110c66101008301836132a0565b6110d7610100890160e08a01612b23565b6110e56101208a018a6132a0565b6040518963ffffffff1660e01b815260040161110797969594939291906132fb565b6000604051808303818588803b15801561112057600080fd5b505af1158015611134573d6000803e3d6000fd5b5050505050505b60010161103d565b50336001600160a01b0316638e9e70996040518163ffffffff1660e01b8152600401600060405180830381865afa158015611182573d6000803e3d6000fd5b505050506040513d6000823e601f3d908101601f191682016040526111aa9190810190613381565b604051638351eea760e01b81526004016109a891906127fa565b60408051808201909152600080825260208201526000806111e4856116a3565b90925090506112016111f96020870187612dde565b838387611e92565b95945050505050565b60606112158261141f565b506000611220611f6a565b90506000815111611240576040518060200160405280600081525061126b565b8061124a84611f79565b60405160200161125b9291906133ee565b6040516020818303038152906040525b9392505050565b61127a611a6e565b60405163ca5eb5e160e01b81526001600160a01b0382811660048301527f0000000000000000000000000000000000000000000000000000000000000000169063ca5eb5e190602401600060405180830381600087803b1580156112dd57600080fd5b505af11580156112f1573d6000803e3d6000fd5b5050505050565b3330146113185760405163029a949d60e31b815260040160405180910390fd5b610a1887878787878787610a09565b61132f611a6e565b600280546001600160a01b0319166001600160a01b0383169081179091556040519081527fd48d879cef83a1c0bdda516f27b13ddb1b3f8bbac1c9e1511bb2a659c242776090602001610dcb565b6001600160a01b039182166000908152600a6020908152604080832093909416825291909152205460ff1690565b6113b3611a6e565b6001600160a01b0381166113dd57604051631e4fbdf760e01b8152600060048201526024016109a8565b6113e681611b4e565b50565b60006020820180359060019083906114019086612dde565b63ffffffff1681526020810191909152604001600020541492915050565b6000818152600760205260408120546001600160a01b03168061089157604051637e27328960e01b8152600481018490526024016109a8565b610c72838383600161200b565b63ffffffff8116600090815260016020526040812054806108915760405163f6ff4fb760e01b815263ffffffff841660048201526024016109a8565b60006114b36114b08787612111565b90565b905060006114c18787612129565b90506114da82826114d560208d018d612dde565b612139565b604086111561159e5760006115146114f860608c0160408d0161341d565b61150560208d018d612dde565b61150f8b8b612143565b61218e565b604051633e5ac80960e11b81529091506001600160a01b037f00000000000000000000000000000000000000000000000000000000000000001690637cb590129061156a9086908d90600090879060040161343a565b600060405180830381600087803b15801561158457600080fd5b505af1158015611598573d6000803e3d6000fd5b50505050505b6001600160a01b038216887f7883fa30ea56937810e36990b0bbb8d629d0cf59f68baf8431ff657cebe7eef56115d760208d018d612dde565b6040805163ffffffff9092168252602082018690520160405180910390a3505050505050505050565b6113e68160405160240161161491906127fa565b60408051601f198184030181529190526020810180516001600160e01b031663104c13eb60e21b1790526121bd565b61164c82610d6e565b6001600160a01b0316836001600160a01b03161461169a578261166e83610d6e565b604051634342715b60e11b81526001600160a01b039283166004820152911660248201526044016109a8565b610c72826121de565b60608060208301356116c857604051631e4ec46b60e01b815260040160405180910390fd5b600061171e602085013560408601356116e460808801886132a0565b8080601f01602080910402602001604051908101604052809392919081815260200183838082843760009201919091525061221992505050565b9093509050600081611731576001611734565b60025b90506117546117466020870187612dde565b8261072d60608901896132a0565b6004549093506001600160a01b031680156117da5760405163043a78eb60e01b81526001600160a01b0382169063043a78eb90611797908890889060040161346b565b602060405180830381865afa1580156117b4573d6000803e3d6000fd5b505050506040513d601f19601f820116820180604052508101906117d89190613490565b505b505050915091565b6117ea612730565b60006117f9846000015161227e565b90506118296040518060400160405280600c81526020016b6d65737361676556616c756560a01b815250826122a6565b6020840151156118405761184084602001516122eb565b61186f6040518060400160405280600e81526020016d37b5902fb830bca63d2a37b5b2b760911b815250611600565b7f00000000000000000000000000000000000000000000000000000000000000006001600160a01b0316632637a450826040518060a001604052808b63ffffffff1681526020016118bf8c611465565b81526020018a815260200189815260200160008960200151111515815250866040518463ffffffff1660e01b81526004016118fb9291906134ad565b60806040518083038185885af1158015611919573d6000803e3d6000fd5b50505050506040513d601f19601f8201168201806040525081019061193e9190613556565b915061196b6040518060400160405280600a81526020016972656365697074206f6b60b01b815250611600565b5095945050505050565b6000828152600760205260408120546001600160a01b03908116908316156119a2576119a28184866123cd565b6001600160a01b038116156119e0576119bf60008560008061200b565b6001600160a01b038116600090815260086020526040902080546000190190555b6001600160a01b03851615611a0f576001600160a01b0385166000908152600860205260409020805460010190555b60008481526007602052604080822080546001600160a01b0319166001600160a01b0389811691821790925591518793918516917fddf252ad1be2c89b69c2b068fc378daa952ba7f163c4a11628f55a4df523b3ef91a4949350505050565b6000546001600160a01b03163314610e305760405163118cdaa760e01b81523360048201526024016109a8565b63ffffffff8216600081815260016020908152604091829020849055815192835282018390527f238399d427b947898edb290f5ff0f9109849b1c3ba196a42e35f00c50a54b98b9101610d62565b6001600160a01b038216611b1357604051633250574960e11b8152600060048201526024016109a8565b6000611b2183836000611975565b90506001600160a01b03811615610c72576040516339e3563760e11b8152600060048201526024016109a8565b600080546001600160a01b038381166001600160a01b0319831681178455604051919092169283917f8be0079c531659141344cd1fd0a4f28419497f9722a3daafe3b4186f6b6457e09190a35050565b6001600160a01b038216611bd057604051630b61174360e31b81526001600160a01b03831660048201526024016109a8565b6001600160a01b038381166000818152600a6020908152604080832094871680845294825291829020805460ff191686151590811790915591519182527f17307eab39ab6107e8899845ad3d59bd9653f200f220920489ca2b5937696c31910160405180910390a3505050565b6001600160a01b0383163b15610c1057604051630a85bd0160e11b81526001600160a01b0384169063150b7a0290611c7f9033908890879087906004016135a0565b6020604051808303816000875af1925050508015611cba575060408051601f3d908101601f19168201909252611cb7918101906135d3565b60015b611d23573d808015611ce8576040519150601f19603f3d011682016040523d82523d6000602084013e611ced565b606091505b508051600003611d1b57604051633250574960e11b81526001600160a01b03851660048201526024016109a8565b805181602001fd5b6001600160e01b03198116630a85bd0160e11b146112f157604051633250574960e11b81526001600160a01b03851660048201526024016109a8565b60005b8151811015611e3657611d91828281518110611d8057611d80613269565b602002602001015160400151611e66565b818181518110611da357611da3613269565b60200260200101516040015160036000848481518110611dc557611dc5613269565b60200260200101516000015163ffffffff1663ffffffff1681526020019081526020016000206000848481518110611dff57611dff613269565b60200260200101516020015161ffff1661ffff1681526020019081526020016000209081611e2d91906135f0565b50600101611d62565b507fbe4864a8e820971c0247f5992e2da559595f7bf076a21cb5928d443d2a13b67481604051610dcb91906136af565b600281015161ffff811660031461095d5781604051639a6d49cd60e01b81526004016109a891906127fa565b60408051808201909152600080825260208201527f00000000000000000000000000000000000000000000000000000000000000006001600160a01b031663ddc28c586040518060a001604052808863ffffffff168152602001611ef589611465565b8152602001878152602001868152602001851515815250306040518363ffffffff1660e01b8152600401611f2a9291906134ad565b6040805180830381865afa158015611f46573d6000803e3d6000fd5b505050506040513d601f19601f82011682018060405250810190611201919061373a565b6060600b80546108a690612f00565b60606000611f8683612431565b60010190506000816001600160401b03811115611fa557611fa5612bed565b6040519080825280601f01601f191660200182016040528015611fcf576020820181803683370190505b5090508181016020015b600019016f181899199a1a9b1b9c1cb0b131b232b360811b600a86061a8153600a8504945084611fd957509392505050565b808061201f57506001600160a01b03821615155b156120e157600061202f8461141f565b90506001600160a01b0383161580159061205b5750826001600160a01b0316816001600160a01b031614155b801561206e575061206c818461137d565b155b156120975760405163a9fbf51f60e01b81526001600160a01b03841660048201526024016109a8565b81156120df5783856001600160a01b0316826001600160a01b03167f8c5be1e5ebec7d5bd14f71427d1e84f3dd0314c0f7b2291e5b200ac8c7c3b92560405160405180910390a45b505b5050600090815260096020526040902080546001600160a01b0319166001600160a01b0392909216919091179055565b600061212060208284866131da565b61126b91613756565b60006121206040602084866131da565b610c728383611ae9565b606061215282604081866131da565b8080601f016020809104026020016040519081016040528093929190818152602001838380828437600092019190915250929695505050505050565b60608383836040516020016121a593929190613774565b60405160208183030381529060405290509392505050565b80516a636f6e736f6c652e6c6f67602083016000808483855afa5050505050565b60006121ed6000836000611975565b90506001600160a01b03811661095d57604051637e27328960e01b8152600481018390526024016109a8565b805160609015158061224d576040805160208101879052908101859052606001604051602081830303815290604052612274565b8484338560405160200161226494939291906137be565b6040516020818303038152906040525b9150935093915050565b60008134146122a2576040516304fb820960e51b81523460048201526024016109a8565b5090565b61095d82826040516024016122bc9291906137f2565b60408051601f198184030181529190526020810180516001600160e01b03166309710a9d60e41b1790526121bd565b60007f00000000000000000000000000000000000000000000000000000000000000006001600160a01b031663e4fe1d946040518163ffffffff1660e01b8152600401602060405180830381865afa15801561234b573d6000803e3d6000fd5b505050506040513d601f19601f8201168201806040525081019061236f9190613814565b90506001600160a01b038116612398576040516329b99a9560e11b815260040160405180910390fd5b61095d6001600160a01b038216337f000000000000000000000000000000000000000000000000000000000000000085612509565b6123d8838383612563565b610c72576001600160a01b03831661240657604051637e27328960e01b8152600481018290526024016109a8565b60405163177e802f60e01b81526001600160a01b0383166004820152602481018290526044016109a8565b60008072184f03e93ff9f4daa797ed6e38ed64bf6a1f0160401b83106124705772184f03e93ff9f4daa797ed6e38ed64bf6a1f0160401b830492506040015b6d04ee2d6d415b85acef8100000000831061249c576d04ee2d6d415b85acef8100000000830492506020015b662386f26fc1000083106124ba57662386f26fc10000830492506010015b6305f5e10083106124d2576305f5e100830492506008015b61271083106124e657612710830492506004015b606483106124f8576064830492506002015b600a83106108915760010192915050565b604080516001600160a01b0385811660248301528416604482015260648082018490528251808303909101815260849091019091526020810180516001600160e01b03166323b872dd60e01b179052610c109085906125c6565b60006001600160a01b03831615801590610e3f5750826001600160a01b0316846001600160a01b0316148061259d575061259d848461137d565b80610e3f5750506000908152600960205260409020546001600160a01b03908116911614919050565b60006125db6001600160a01b03841683612629565b905080516000141580156126005750808060200190518101906125fe9190613490565b155b15610c7257604051635274afe760e01b81526001600160a01b03841660048201526024016109a8565b606061126b8383600084600080856001600160a01b0316848660405161264f9190613831565b60006040518083038185875af1925050503d806000811461268c576040519150601f19603f3d011682016040523d82523d6000602084013e612691565b606091505b50915091506126a18683836126ab565b9695505050505050565b6060826126c0576126bb82612707565b61126b565b81511580156126d757506001600160a01b0384163b155b1561270057604051639996b31560e01b81526001600160a01b03851660048201526024016109a8565b508061126b565b8051156127175780518082602001fd5b604051630a12f52160e11b815260040160405180910390fd5b60405180606001604052806000801916815260200160006001600160401b03168152602001612772604051806040016040528060008152602001600081525090565b905290565b6001600160e01b0319811681146113e657600080fd5b60006020828403121561279f57600080fd5b813561126b81612777565b60005b838110156127c55781810151838201526020016127ad565b50506000910152565b600081518084526127e68160208601602086016127aa565b601f01601f19169290920160200192915050565b60208152600061126b60208301846127ce565b60006020828403121561281f57600080fd5b5035919050565b6001600160a01b03811681146113e657600080fd5b6000806040838503121561284e57600080fd5b823561285981612826565b946020939093013593505050565b60006060828403121561287957600080fd5b50919050565b60008083601f84011261289157600080fd5b5081356001600160401b038111156128a857600080fd5b6020830191508360208285010111156128c057600080fd5b9250929050565b600080600080600080600060e0888a0312156128e257600080fd5b6128ec8989612867565b96506060880135955060808801356001600160401b038082111561290f57600080fd5b61291b8b838c0161287f565b909750955060a08a0135915061293082612826565b90935060c0890135908082111561294657600080fd5b506129538a828b0161287f565b989b979a50959850939692959293505050565b600060c0828403121561287957600080fd5b6000806000838503608081121561298e57600080fd5b84356001600160401b038111156129a457600080fd5b6129b087828801612966565b9450506040601f19820112156129c557600080fd5b5060208401915060608401356129da81612826565b809150509250925092565b6000608082019050825182526001600160401b0360208401511660208301526040830151612a20604084018280518252602090810151910152565b5092915050565b600080600060608486031215612a3c57600080fd5b8335612a4781612826565b92506020840135612a5781612826565b929592945050506040919091013590565b803563ffffffff81168114612a7c57600080fd5b919050565b60008060408385031215612a9457600080fd5b61285983612a68565b803561ffff81168114612a7c57600080fd5b60008060408385031215612ac257600080fd5b612acb83612a68565b9150612ad960208401612a9d565b90509250929050565b60008060208385031215612af557600080fd5b82356001600160401b03811115612b0b57600080fd5b612b178582860161287f565b90969095509350505050565b600060208284031215612b3557600080fd5b813561126b81612826565b60008060008060a08587031215612b5657600080fd5b612b608686612867565b935060608501356001600160401b03811115612b7b57600080fd5b612b878782880161287f565b9094509250506080850135612b9b81612826565b939692955090935050565b80151581146113e657600080fd5b60008060408385031215612bc757600080fd5b8235612bd281612826565b91506020830135612be281612ba6565b809150509250929050565b634e487b7160e01b600052604160045260246000fd5b604080519081016001600160401b0381118282101715612c2557612c25612bed565b60405290565b604051606081016001600160401b0381118282101715612c2557612c25612bed565b604051601f8201601f191681016001600160401b0381118282101715612c7557612c75612bed565b604052919050565b60006001600160401b03821115612c9657612c96612bed565b50601f01601f191660200190565b600082601f830112612cb557600080fd5b8135612cc8612cc382612c7d565b612c4d565b818152846020838601011115612cdd57600080fd5b816020850160208301376000918101602001919091529392505050565b60008060008060808587031215612d1057600080fd5b8435612d1b81612826565b93506020850135612d2b81612826565b92506040850135915060608501356001600160401b03811115612d4d57600080fd5b612d5987828801612ca4565b91505092959194509250565b60008083601f840112612d7757600080fd5b5081356001600160401b03811115612d8e57600080fd5b6020830191508360208260051b85010111156128c057600080fd5b60008060208385031215612dbc57600080fd5b82356001600160401b03811115612dd257600080fd5b612b1785828601612d65565b600060208284031215612df057600080fd5b61126b82612a68565b60008060008060608587031215612e0f57600080fd5b612e1885612a68565b9350612e2660208601612a9d565b925060408501356001600160401b03811115612e4157600080fd5b612e4d8782880161287f565b95989497509550505050565b60008060408385031215612e6c57600080fd5b82356001600160401b03811115612e8257600080fd5b612e8e85828601612966565b9250506020830135612be281612ba6565b815181526020808301519082015260408101610891565b60008060408385031215612ec957600080fd5b8235612ed481612826565b91506020830135612be281612826565b600060608284031215612ef657600080fd5b61126b8383612867565b600181811c90821680612f1457607f821691505b60208210810361287957634e487b7160e01b600052602260045260246000fd5b600060408284031215612f4657600080fd5b612f4e612c03565b82358152602083013560208201528091505092915050565b601f821115610c72576000816000526020600020601f850160051c81016020861015612f8f5750805b601f850160051c820191505b81811015612fae57828155600101612f9b565b505050505050565b6001600160401b03831115612fcd57612fcd612bed565b612fe183612fdb8354612f00565b83612f66565b6000601f8411600181146130155760008515612ffd5750838201355b600019600387901b1c1916600186901b1783556112f1565b600083815260209020601f19861690835b828110156130465786850135825560209485019460019092019101613026565b50868210156130635760001960f88860031b161c19848701351681555b505060018560011b0183555050505050565b600060208083526000845461308981612f00565b80602087015260406001808416600081146130ab57600181146130c7576130f7565b60ff19851660408a0152604084151560051b8a010195506130f7565b89600052602060002060005b858110156130ee5781548b82018601529083019088016130d3565b8a016040019650505b509398975050505050505050565b60006001600160401b038084111561311f5761311f612bed565b8360051b6020613130818301612c4d565b86815291850191818101903684111561314857600080fd5b865b848110156131ce578035868111156131625760008081fd5b880160603682900312156131765760008081fd5b61317e612c2b565b61318782612a68565b8152613194868301612a9d565b86820152604080830135898111156131ac5760008081fd5b6131b836828601612ca4565b918301919091525084525091830191830161314a565b50979650505050505050565b600080858511156131ea57600080fd5b838611156131f757600080fd5b5050820193919092039150565b600084516132168184602089016127aa565b8201838582376000930192835250909392505050565b81835281816020850137506000828201602090810191909152601f909101601f19169091010190565b602081526000610e3f60208301848661322c565b634e487b7160e01b600052603260045260246000fd5b6000823561013e1983360301811261329657600080fd5b9190910192915050565b6000808335601e198436030181126132b757600080fd5b8301803591506001600160401b038211156132d157600080fd5b6020019150368190038213156128c057600080fd5b6001600160401b03811681146113e657600080fd5b63ffffffff61330989612a68565b1681526020880135602082015260006040890135613326816132e6565b6001600160401b03811660408401525087606083015260e0608083015261335160e08301878961322c565b6001600160a01b03861660a084015282810360c084015261337381858761322c565b9a9950505050505050505050565b60006020828403121561339357600080fd5b81516001600160401b038111156133a957600080fd5b8201601f810184136133ba57600080fd5b80516133c8612cc382612c7d565b8181528560208385010111156133dd57600080fd5b6112018260208301602086016127aa565b600083516134008184602088016127aa565b8351908301906134148183602088016127aa565b01949350505050565b60006020828403121561342f57600080fd5b813561126b816132e6565b60018060a01b038516815283602082015261ffff831660408201526080606082015260006126a160808301846127ce565b60408152600061347e60408301856127ce565b828103602084015261120181856127ce565b6000602082840312156134a257600080fd5b815161126b81612ba6565b6040815263ffffffff8351166040820152602083015160608201526000604084015160a060808401526134e360e08401826127ce565b90506060850151603f198483030160a085015261350082826127ce565b60809690960151151560c08501525050506001600160a01b039190911660209091015290565b60006040828403121561353857600080fd5b613540612c03565b9050815181526020820151602082015292915050565b60006080828403121561356857600080fd5b613570612c2b565b825181526020830151613582816132e6565b60208201526135948460408501613526565b60408201529392505050565b6001600160a01b03858116825284166020820152604081018390526080606082018190526000906126a1908301846127ce565b6000602082840312156135e557600080fd5b815161126b81612777565b81516001600160401b0381111561360957613609612bed565b61361d816136178454612f00565b84612f66565b602080601f831160018114613652576000841561363a5750858301515b600019600386901b1c1916600185901b178555612fae565b600085815260208120601f198616915b8281101561368157888601518255948401946001909101908401613662565b508582101561369f5787850151600019600388901b60f8161c191681555b5050505050600190811b01905550565b600060208083018184528085518083526040925060408601915060408160051b87010184880160005b8381101561372c57888303603f190185528151805163ffffffff1684528781015161ffff16888501528601516060878501819052613718818601836127ce565b9689019694505050908601906001016136d8565b509098975050505050505050565b60006040828403121561374c57600080fd5b61126b8383613526565b8035602083101561089157600019602084900360031b1b1692915050565b60c084901b6001600160c01b031916815260e083901b6001600160e01b031916600882015281516000906137af81600c8501602087016127aa565b91909101600c01949350505050565b848152836020820152826040820152600082516137e28160608501602087016127aa565b9190910160600195945050505050565b60408152600061380560408301856127ce565b90508260208301529392505050565b60006020828403121561382657600080fd5b815161126b81612826565b600082516132968184602087016127aa56fea2646970667358221220e54ad7d9031591c85d0a8dfb29f27e2c6ac3c684d390286991170e8c20876c3264736f6c63430008160033",
  "devdoc": {
    "errors": {
      "AddressEmptyCode(address)": [
        {
          "details": "There's no code at `target` (it is not a contract)."
        }
      ],
      "AddressInsufficientBalance(address)": [
        {
          "details": "The ETH balance of the account is not enough to perform the operation."
        }
      ],
      "ERC721IncorrectOwner(address,uint256,address)": [
        {
          "details": "Indicates an error related to the ownership over a particular token. Used in transfers.",
          "params": {
            "owner": "Address of the current owner of a token.",
            "sender": "Address whose tokens are being transferred.",
            "tokenId": "Identifier number of a token."
          }
        }
      ],
      "ERC721InsufficientApproval(address,uint256)": [
        {
          "details": "Indicates a failure with the `operator`s approval. Used in transfers.",
          "params": {
            "operator": "Address that may be allowed to operate on tokens without being their owner.",
            "tokenId": "Identifier number of a token."
          }
        }
      ],
      "ERC721InvalidApprover(address)": [
        {
          "details": "Indicates a failure with the `approver` of a token to be approved. Used in approvals.",
          "params": {
            "approver": "Address initiating an approval operation."
          }
        }
      ],
      "ERC721InvalidOperator(address)": [
        {
          "details": "Indicates a failure with the `operator` to be approved. Used in approvals.",
          "params": {
            "operator": "Address that may be allowed to operate on tokens without being their owner."
          }
        }
      ],
      "ERC721InvalidOwner(address)": [
        {
          "details": "Indicates that an address can't be an owner. For example, `address(0)` is a forbidden owner in EIP-20. Used in balance queries.",
          "params": {
            "owner": "Address of the current owner of a token."
          }
        }
      ],
      "ERC721InvalidReceiver(address)": [
        {
          "details": "Indicates a failure with the token `receiver`. Used in transfers.",
          "params": {
            "receiver": "Address to which tokens are being transferred."
          }
        }
      ],
      "ERC721InvalidSender(address)": [
        {
          "details": "Indicates a failure with the token `sender`. Used in transfers.",
          "params": {
            "sender": "Address whose tokens are being transferred."
          }
        }
      ],
      "ERC721NonexistentToken(uint256)": [
        {
          "details": "Indicates a `tokenId` whose `owner` is the zero address.",
          "params": {
            "tokenId": "Identifier number of a token."
          }
        }
      ],
      "FailedInnerCall()": [
        {
          "details": "A call to an address target failed. The target may have reverted."
        }
      ],
      "OwnableInvalidOwner(address)": [
        {
          "details": "The owner is not a valid owner account. (eg. `address(0)`)"
        }
      ],
      "OwnableUnauthorizedAccount(address)": [
        {
          "details": "The caller account is not authorized to perform an operation."
        }
      ],
      "SafeERC20FailedOperation(address)": [
        {
          "details": "An operation with an ERC20 token failed."
        }
      ]
    },
    "events": {
      "Approval(address,address,uint256)": {
        "details": "Emitted when `owner` enables `approved` to manage the `tokenId` token."
      },
      "ApprovalForAll(address,address,bool)": {
        "details": "Emitted when `owner` enables or disables (`approved`) `operator` to manage all of its assets."
      },
      "PreCrimeSet(address)": {
        "details": "Emitted when the preCrime contract address is set.",
        "params": {
          "preCrimeAddress": "The address of the preCrime contract."
        }
      },
      "Transfer(address,address,uint256)": {
        "details": "Emitted when `tokenId` token is transferred from `from` to `to`."
      }
    },
    "kind": "dev",
    "methods": {
      "allowInitializePath((uint32,bytes32,uint64))": {
        "details": "This indicates to the endpoint that the OApp has enabled msgs for this particular path to be received.This defaults to assuming if a peer has been set, its initialized. Can be overridden by the OApp if there is other logic to determine this.",
        "params": {
          "origin": "The origin information containing the source endpoint and sender address."
        },
        "returns": {
          "_0": "Whether the path has been initialized."
        }
      },
      "approvalRequired()": {
        "details": "In the case of ONFT where the contract IS the token, approval is NOT required.",
        "returns": {
          "_0": "requiresApproval Needs approval of the underlying token implementation."
        }
      },
      "approve(address,uint256)": {
        "details": "See {IERC721-approve}."
      },
      "balanceOf(address)": {
        "details": "See {IERC721-balanceOf}."
      },
      "combineOptions(uint32,uint16,bytes)": {
        "details": "If there is an enforced lzReceive option: - {gasLimit: 200k, msg.value: 1 ether} AND a caller supplies a lzReceive option: {gasLimit: 100k, msg.value: 0.5 ether} - The resulting options will be {gasLimit: 300k, msg.value: 1.5 ether} when the message is executed on the remote lzReceive() function.This presence of duplicated options is handled off-chain in the verifier/executor.",
        "params": {
          "_eid": "The endpoint ID.",
          "_extraOptions": "Additional options passed by the caller.",
          "_msgType": "The OAPP message type."
        },
        "returns": {
          "_0": "options The combination of caller specified options AND enforced options."
        }
      },
      "getApproved(uint256)": {
        "details": "See {IERC721-getApproved}."
      },
      "isApprovedForAll(address,address)": {
        "details": "See {IERC721-isApprovedForAll}."
      },
      "isComposeMsgSender((uint32,bytes32,uint64),bytes,address)": {
        "details": "_origin The origin information containing the source endpoint and sender address.  - srcEid: The source chain endpoint ID.  - sender: The sender address on the src chain.  - nonce: The nonce of the message._message The lzReceive payload.Applications can optionally choose to implement separate composeMsg senders that are NOT the bridging layer.The default sender IS the OAppReceiver implementer.",
        "params": {
          "_sender": "The sender address."
        },
        "returns": {
          "_0": "isSender Is a valid sender."
        }
      },
      "isPeer(uint32,bytes32)": {
        "details": "Check if the peer is considered 'trusted' by the OApp.Enables OAppPreCrimeSimulator to check whether a potential Inbound Packet is from a trusted source.",
        "params": {
          "_eid": "The endpoint ID to check.",
          "_peer": "The peer to check."
        },
        "returns": {
          "_0": "Whether the peer passed is considered 'trusted' by the OApp."
        }
      },
      "lzReceive((uint32,bytes32,uint64),bytes32,bytes,address,bytes)": {
        "details": "Entry point for receiving messages or packets from the endpoint.Entry point for receiving msg/packet from the LayerZero endpoint.",
        "params": {
          "_executor": "The address of the executor for the received message.",
          "_extraData": "Additional arbitrary data provided by the corresponding executor.",
          "_guid": "The unique identifier for the received LayerZero message.",
          "_message": "The payload of the received message.",
          "_origin": "The origin information containing the source endpoint and sender address.  - srcEid: The source chain endpoint ID.  - sender: The sender address on the src chain.  - nonce: The nonce of the message."
        }
      },
      "lzReceiveAndRevert(((uint32,bytes32,uint64),uint32,address,bytes32,uint256,address,bytes,bytes)[])": {
        "details": "Interface for pre-crime simulations. Always reverts at the end with the simulation results.WARNING: MUST revert at the end with the simulation results.Gives the preCrime implementation the ability to mock sending packets to the lzReceive function, WITHOUT actually executing them.",
        "params": {
          "_packets": "An array of InboundPacket objects representing received packets to be delivered."
        }
      },
      "lzReceiveSimulate((uint32,bytes32,uint64),bytes32,bytes,address,bytes)": {
        "details": "Is effectively an internal function because msg.sender must be address(this). Allows resetting the call stack for 'internal' calls.",
        "params": {
          "_executor": "The executor address for the packet.",
          "_extraData": "Additional data for the packet.",
          "_guid": "The unique identifier of the packet.",
          "_message": "The message payload of the packet.",
          "_origin": "The origin information containing the source endpoint and sender address.  - srcEid: The source chain endpoint ID.  - sender: The sender address on the src chain.  - nonce: The nonce of the message."
        }
      },
      "name()": {
        "details": "See {IERC721Metadata-name}."
      },
      "nextNonce(uint32,bytes32)": {
        "details": "_srcEid The source endpoint ID._sender The sender address.The path nonce starts from 1. If 0 is returned it means that there is NO nonce ordered enforcement.Is required by the off-chain executor to determine the OApp expects msg execution is ordered.This is also enforced by the OApp.By default this is NOT enabled. ie. nextNonce is hardcoded to return 0.",
        "returns": {
          "nonce": "The next nonce."
        }
      },
      "oApp()": {
        "details": "Retrieves the address of the OApp contract.The simulator contract is the base contract for the OApp by default.If the simulator is a separate contract, override this function.",
        "returns": {
          "_0": "The address of the OApp contract."
        }
      },
      "oAppVersion()": {
        "returns": {
          "receiverVersion": "The version of the OAppReceiver.sol implementation.",
          "senderVersion": "The version of the OAppSender.sol implementation."
        }
      },
      "onftVersion()": {
        "details": "version: Indicates a cross-chain compatible msg encoding with other ONFTs.If a new feature is added to the ONFT cross-chain msg encoding, the version will be incremented.ie. localONFT version(x,1) CAN send messages to remoteONFT version(x,1)",
        "returns": {
          "interfaceId": "The interface ID (0x23e18da6).",
          "version": "The version."
        }
      },
      "owner()": {
        "details": "Returns the address of the current owner."
      },
      "ownerOf(uint256)": {
        "details": "See {IERC721-ownerOf}."
      },
      "quoteSend((uint32,bytes32,uint256,bytes,bytes,bytes),bool)": {
        "details": "MessagingFee: LayerZero msg fee  - nativeFee: The native fee.  - lzTokenFee: The lzToken fee.",
        "params": {
          "_payInLzToken": "Flag indicating whether the caller is paying in the LZ token.",
          "_sendParam": "The parameters for the send() operation."
        },
        "returns": {
          "msgFee": "fee The calculated LayerZero messaging fee from the send() operation."
        }
      },
      "renounceOwnership()": {
        "details": "Leaves the contract without owner. It will not be possible to call `onlyOwner` functions. Can only be called by the current owner. NOTE: Renouncing ownership will leave the contract without an owner, thereby disabling any functionality that is only available to the owner."
      },
      "safeTransferFrom(address,address,uint256)": {
        "details": "See {IERC721-safeTransferFrom}."
      },
      "safeTransferFrom(address,address,uint256,bytes)": {
        "details": "See {IERC721-safeTransferFrom}."
      },
      "send((uint32,bytes32,uint256,bytes,bytes,bytes),(uint256,uint256),address)": {
        "details": "MessagingReceipt: LayerZero msg receipt  - guid: The unique identifier for the sent message.  - nonce: The nonce of the sent message.  - fee: The LayerZero fee incurred for the message.",
        "params": {
          "_fee": "The fee information supplied by the caller.      - nativeFee: The native fee.      - lzTokenFee: The lzToken fee.",
          "_refundAddress": "The address to receive any excess funds from fees etc. on the src.",
          "_sendParam": "The parameters for the send operation."
        },
        "returns": {
          "msgReceipt": "receipt The LayerZero messaging receipt from the send() operation."
        }
      },
      "setApprovalForAll(address,bool)": {
        "details": "See {IERC721-setApprovalForAll}."
      },
      "setDelegate(address)": {
        "details": "Only the owner/admin of the OApp can call this function.Provides the ability for a delegate to set configs, on behalf of the OApp, directly on the Endpoint contract.",
        "params": {
          "_delegate": "The address of the delegate to be set."
        }
      },
      "setEnforcedOptions((uint32,uint16,bytes)[])": {
        "details": "Sets the enforced options for specific endpoint and message type combinations.Only the owner/admin of the OApp can call this function.Provides a way for the OApp to enforce things like paying for PreCrime, AND/OR minimum dst lzReceive gas amounts etc.These enforced options can vary as the potential options/execution on the remote may differ as per the msgType. eg. Amount of lzReceive() gas necessary to deliver a lzCompose() message adds overhead you dont want to pay if you are only making a standard LayerZero message ie. lzReceive() WITHOUT sendCompose().",
        "params": {
          "_enforcedOptions": "An array of EnforcedOptionParam structures specifying enforced options."
        }
      },
      "setMsgInspector(address)": {
        "details": "This is an optional contract that can be used to inspect both 'message' and 'options'.Set it to address(0) to disable it, or set it to a contract address to enable it.",
        "params": {
          "_msgInspector": "The address of the message inspector."
        }
      },
      "setPeer(uint32,bytes32)": {
        "details": "Only the owner/admin of the OApp can call this function.Indicates that the peer is trusted to send LayerZero messages to this OApp.Set this to bytes32(0) to remove the peer address.Peer is a bytes32 to accommodate non-evm chains.",
        "params": {
          "_eid": "The endpoint ID.",
          "_peer": "The address of the peer to be associated with the corresponding endpoint."
        }
      },
      "setPreCrime(address)": {
        "details": "Sets the preCrime contract address.",
        "params": {
          "_preCrime": "The address of the preCrime contract."
        }
      },
      "supportsInterface(bytes4)": {
        "details": "See {IERC165-supportsInterface}."
      },
      "symbol()": {
        "details": "See {IERC721Metadata-symbol}."
      },
      "tokenURI(uint256)": {
        "details": "See {IERC721Metadata-tokenURI}."
      },
      "transferFrom(address,address,uint256)": {
        "details": "See {IERC721-transferFrom}."
      },
      "transferOwnership(address)": {
        "details": "Transfers ownership of the contract to a new account (`newOwner`). Can only be called by the current owner."
      }
    },
    "version": 1
  },
  "userdoc": {
    "kind": "user",
    "methods": {
      "allowInitializePath((uint32,bytes32,uint64))": {
        "notice": "Checks if the path initialization is allowed based on the provided origin."
      },
      "approvalRequired()": {
        "notice": "Indicates whether the ONFT721 contract requires approval of the 'token()' to send."
      },
      "combineOptions(uint32,uint16,bytes)": {
        "notice": "Combines options for a given endpoint and message type."
      },
      "endpoint()": {
        "notice": "Retrieves the LayerZero endpoint associated with the OApp."
      },
      "isComposeMsgSender((uint32,bytes32,uint64),bytes,address)": {
        "notice": "Indicates whether an address is an approved composeMsg sender to the Endpoint."
      },
      "nextNonce(uint32,bytes32)": {
        "notice": "Retrieves the next nonce for a given source endpoint and sender address."
      },
      "oAppVersion()": {
        "notice": "Retrieves the OApp version information."
      },
      "onftVersion()": {
        "notice": "Retrieves interfaceID and the version of the ONFT."
      },
      "peers(uint32)": {
        "notice": "Retrieves the peer (OApp) associated with a corresponding endpoint."
      },
      "quoteSend((uint32,bytes32,uint256,bytes,bytes,bytes),bool)": {
        "notice": "Provides a quote for the send() operation."
      },
      "send((uint32,bytes32,uint256,bytes,bytes,bytes),(uint256,uint256),address)": {
        "notice": "Executes the send() operation."
      },
      "setDelegate(address)": {
        "notice": "Sets the delegate address for the OApp."
      },
      "setMsgInspector(address)": {
        "notice": "Sets the message inspector address for the OFT."
      },
      "setPeer(uint32,bytes32)": {
        "notice": "Sets the peer address (OApp instance) for a corresponding endpoint."
      },
      "token()": {
        "notice": "Retrieves the address of the underlying ERC721 implementation (ie. this contract)."
      }
    },
    "version": 1
  },
  "storageLayout": {
    "storage": [
      {
        "astId": 7065,
        "contract": "contracts/mocks/MyONFT721Mock.sol:MyONFT721Mock",
        "label": "_owner",
        "offset": 0,
        "slot": "0",
        "type": "t_address"
      },
      {
        "astId": 4618,
        "contract": "contracts/mocks/MyONFT721Mock.sol:MyONFT721Mock",
        "label": "peers",
        "offset": 0,
        "slot": "1",
        "type": "t_mapping(t_uint32,t_bytes32)"
      },
      {
        "astId": 5418,
        "contract": "contracts/mocks/MyONFT721Mock.sol:MyONFT721Mock",
        "label": "preCrime",
        "offset": 0,
        "slot": "2",
        "type": "t_address"
      },
      {
        "astId": 5258,
        "contract": "contracts/mocks/MyONFT721Mock.sol:MyONFT721Mock",
        "label": "enforcedOptions",
        "offset": 0,
        "slot": "3",
        "type": "t_mapping(t_uint32,t_mapping(t_uint16,t_bytes_storage))"
      },
      {
        "astId": 6182,
        "contract": "contracts/mocks/MyONFT721Mock.sol:MyONFT721Mock",
        "label": "msgInspector",
        "offset": 0,
        "slot": "4",
        "type": "t_address"
      },
      {
        "astId": 7778,
        "contract": "contracts/mocks/MyONFT721Mock.sol:MyONFT721Mock",
        "label": "_name",
        "offset": 0,
        "slot": "5",
        "type": "t_string_storage"
      },
      {
        "astId": 7780,
        "contract": "contracts/mocks/MyONFT721Mock.sol:MyONFT721Mock",
        "label": "_symbol",
        "offset": 0,
        "slot": "6",
        "type": "t_string_storage"
      },
      {
        "astId": 7784,
        "contract": "contracts/mocks/MyONFT721Mock.sol:MyONFT721Mock",
        "label": "_owners",
        "offset": 0,
        "slot": "7",
        "type": "t_mapping(t_uint256,t_address)"
      },
      {
        "astId": 7788,
        "contract": "contracts/mocks/MyONFT721Mock.sol:MyONFT721Mock",
        "label": "_balances",
        "offset": 0,
        "slot": "8",
        "type": "t_mapping(t_address,t_uint256)"
      },
      {
        "astId": 7792,
        "contract": "contracts/mocks/MyONFT721Mock.sol:MyONFT721Mock",
        "label": "_tokenApprovals",
        "offset": 0,
        "slot": "9",
        "type": "t_mapping(t_uint256,t_address)"
      },
      {
        "astId": 7798,
        "contract": "contracts/mocks/MyONFT721Mock.sol:MyONFT721Mock",
        "label": "_operatorApprovals",
        "offset": 0,
        "slot": "10",
        "type": "t_mapping(t_address,t_mapping(t_address,t_bool))"
      },
      {
        "astId": 6018,
        "contract": "contracts/mocks/MyONFT721Mock.sol:MyONFT721Mock",
        "label": "baseTokenURI",
        "offset": 0,
        "slot": "11",
        "type": "t_string_storage"
      }
    ],
    "types": {
      "t_address": {
        "encoding": "inplace",
        "label": "address",
        "numberOfBytes": "20"
      },
      "t_bool": {
        "encoding": "inplace",
        "label": "bool",
        "numberOfBytes": "1"
      },
      "t_bytes32": {
        "encoding": "inplace",
        "label": "bytes32",
        "numberOfBytes": "32"
      },
      "t_bytes_storage": {
        "encoding": "bytes",
        "label": "bytes",
        "numberOfBytes": "32"
      },
      "t_mapping(t_address,t_bool)": {
        "encoding": "mapping",
        "key": "t_address",
        "label": "mapping(address => bool)",
        "numberOfBytes": "32",
        "value": "t_bool"
      },
      "t_mapping(t_address,t_mapping(t_address,t_bool))": {
        "encoding": "mapping",
        "key": "t_address",
        "label": "mapping(address => mapping(address => bool))",
        "numberOfBytes": "32",
        "value": "t_mapping(t_address,t_bool)"
      },
      "t_mapping(t_address,t_uint256)": {
        "encoding": "mapping",
        "key": "t_address",
        "label": "mapping(address => uint256)",
        "numberOfBytes": "32",
        "value": "t_uint256"
      },
      "t_mapping(t_uint16,t_bytes_storage)": {
        "encoding": "mapping",
        "key": "t_uint16",
        "label": "mapping(uint16 => bytes)",
        "numberOfBytes": "32",
        "value": "t_bytes_storage"
      },
      "t_mapping(t_uint256,t_address)": {
        "encoding": "mapping",
        "key": "t_uint256",
        "label": "mapping(uint256 => address)",
        "numberOfBytes": "32",
        "value": "t_address"
      },
      "t_mapping(t_uint32,t_bytes32)": {
        "encoding": "mapping",
        "key": "t_uint32",
        "label": "mapping(uint32 => bytes32)",
        "numberOfBytes": "32",
        "value": "t_bytes32"
      },
      "t_mapping(t_uint32,t_mapping(t_uint16,t_bytes_storage))": {
        "encoding": "mapping",
        "key": "t_uint32",
        "label": "mapping(uint32 => mapping(uint16 => bytes))",
        "numberOfBytes": "32",
        "value": "t_mapping(t_uint16,t_bytes_storage)"
      },
      "t_string_storage": {
        "encoding": "bytes",
        "label": "string",
        "numberOfBytes": "32"
      },
      "t_uint16": {
        "encoding": "inplace",
        "label": "uint16",
        "numberOfBytes": "2"
      },
      "t_uint256": {
        "encoding": "inplace",
        "label": "uint256",
        "numberOfBytes": "32"
      },
      "t_uint32": {
        "encoding": "inplace",
        "label": "uint32",
        "numberOfBytes": "4"
      }
    }
  }
}